:020000040800F2
:1000000000000220010E0008690700086F070008C1
:10001000750700087B070008810700080000000042
:10002000000000000000000000000000870700083A
:1000300093070008000000009F070008AB070008B6
:10004000510E0008510E0008510E0008510E000814
:10005000510E0008510E0008510E0008510E000804
:10006000510E0008510E0008510E0008510E0008F4
:10007000510E0008510E0008510E0008510E0008E4
:10008000510E0008510E0008510E0008510E0008D4
:10009000510E0008510E0008510E0008510E0008C4
:1000A000510E0008510E0008510E0008510E0008B4
:1000B000510E0008510E0008510E0008510E0008A4
:1000C000510E0008510E0008510E0008510E000894
:1000D000510E0008510E0008510E0008510E000884
:1000E000510E0008510E0008510E0008510E000874
:1000F000510E0008510E0008510E0008510E000864
:10010000510E0008510E0008510E0008510E000853
:10011000510E0008510E0008510E0008510E000843
:10012000510E0008510E0008510E0008510E000833
:10013000510E0008510E0008510E0008510E000823
:10014000510E0008510E0008510E0008B9070008B2
:10015000510E0008510E0008510E0008510E000803
:10016000510E0008510E0008510E0008510E0008F3
:10017000510E0008510E0008510E0008000000004A
:04018000510E000814
:1001840010B5054C237833B9044B13B10448AFF3CD
:1001940000800123237010BDE00100200000000056
:1001A4005829010808B5034B1BB103490348AFF3B1
:1001B400008008BD00000000E40100205829010867
:1001C400034613F8012B002AFBD1181A0138704793
:1001D40053B94AB9002908BF00281CBF4FF0FF31AA
:1001E4004FF0FF3000F072B9ADF1080C6DE904CEA8
:1001F40000F006F8DDF804E0DDE9022304B07047FE
:100204002DE9F047089E0D4604468E46002B4CD13E
:100214008A42944667D9B2FA82F353B102FA03FCD4
:10022400C3F1200201FA03FE20FA02F242EA0E0EA2
:100234009C404FEA1C47BEFBF7F11FFA8CF507FB05
:1002440011EE01FB05F0220C42EA0E4290420AD95B
:100254001CEB020201F1FF3E80F01981904240F252
:10026400168102396244121AB2FBF7F007FB10221E
:1002740000FB05F5A4B244EA0244A5420AD91CEBEA
:10028400040400F1FF3280F00481A54240F20181B0
:100294006444023840EA01400021641B1EB1DC4082
:1002A4000023C6E90043BDE8F0878B4208D9002E3D
:1002B40000F0EA800021C6E900050846BDE8F087A1
:1002C400B3FA83F1002948D1AB4202D3824200F24F
:1002D400F880841A65EB030201209646002EE2D0D2
:1002E400C6E9004EDFE702B9FFDEB2FA82F3002B63
:1002F40040F08E80881A0121170C1FFA82FEB0FB91
:10030400F7F507FB1500220C42EA00420EFB05F04C
:10031400904208D91CEB020205F1FF3802D2904248
:1003240000F2CC804546121AB2FBF7F007FB10220C
:100334000EFB00FEA4B244EA0244A64508D91CEB15
:10034400040400F1FF3202D2A64500F2B480104644
:10035400A4EB0E0440EA0540A0E7C1F120078B405E
:1003640022FA07FC4CEA030C25FA07FA4FEA1C4967
:10037400BAFBF9F88D4020FA07F309FB18AA1FFA13
:100384008CFE2B4300FA01F508FB0EF01C0C44EA2A
:100394000A44A04202FA01F20BD91CEB040408F14E
:1003A400FF3A80F08680A04240F28380A8F10208E0
:1003B4006444241A98B2B4FBF9F309FB134403FB15
:1003C4000EFE40EA0444A64508D91CEB040403F1DC
:1003D400FF306AD2A64568D9023B644443EA084028
:1003E400A0FB0293A4EB0E049C42C8469E4654D341
:1003F40051D0002E67D0B5EB080364EB0E04CB405C
:1004040004FA07F71F43CC40C6E9007400214AE709
:1004140002FA03FCC3F12000C1409D4024FA00F01D
:100424004FEA1C472843B1FBF7F507FB15111FFAE8
:100434008CFE020C42EA014205FB0EF1914204FAE1
:1004440003F408D91CEB020205F1FF382FD29142C4
:100454002DD9023D6244521AB2FBF7F107FB112277
:1004640080B240EA024001FB0EF2824208D91CEB42
:10047400000001F1FF3816D2824214D902396044D7
:10048400801A41EA05413AE7314630460BE77146A6
:10049400E9E61046FEE64D45ABD2B9EB020863EB44
:1004A4000C0E0138A5E74146EAE7034696E74546C0
:1004B400D1E7D0467DE76444023849E7023D62440F
:1004C40031E708460AE73146EDE600BF704700BF52
:1004D40080B500AF00F0BCFC00F010F800F056F856
:1004E40005F098FA10F0D2FD00F016FA024805F073
:1004F40087FE0EF08BF9F9E70402002080B592B074
:1005040000AF07F1180330220021184611F08DFCCA
:100514003B1D00221A605A609A60DA601A61022355
:10052400BB6101237B621023BB6202233B63002374
:100534007B630D23BB63C323FB6302233B6405235B
:100544007B6407F11803184603F0F0FA0346002B06
:1005540001D000F0DBF80F237B600223BB60002393
:10056400FB604FF4A0533B614FF480537B613B1D10
:100574000321184603F02EFD0346002B01D000F0A2
:10058400C5F800BF4837BD4680BD000080B58CB0BB
:1005940000AF07F11C0300221A605A609A60DA6007
:1005A4001A610023BB61544B1B6B534A43F0040391
:1005B4001363514B1B6B03F00403BB61BB69002342
:1005C4007B614D4B1B6B4C4A43F0800313634A4BD6
:1005D4001B6B03F080037B617B6900233B61464B0B
:1005E4001B6B454A43F001031363434B1B6B03F03E
:1005F40001033B613B690023FB603F4B1B6B3E4A9D
:1006040043F0020313633C4B1B6B03F00203FB60D8
:10061400FB680023BB60384B1B6B374A43F008036D
:100624001363354B1B6B03F00803BB60BB680023EB
:100634007B60314B1B6B304A43F0400313632E4BFA
:100644001B6B03F040037B607B68002244F2810152
:100654002A4802F033F800224021294802F02EF8FB
:100664004FF40053FB614FF488133B6200237B6219
:1006740007F11C031946234801F082FE44F281036A
:10068400FB6101233B6200237B620023BB6207F111
:100694001C031946194801F073FE4FF44073FB61C3
:1006A40002233B6200237B620323BB620723FB62BA
:1006B40007F11C031946144801F062FE4023FB6154
:1006C40001233B6200237B620023BB6207F11C030E
:1006D40019460B4801F054FE8023FB6100233B6262
:1006E40000237B6207F11C031946054801F048FE0C
:1006F40000BF3037BD4680BD0038024000040240D0
:100704000018024000080240000C024080B400AF10
:1007140072B600BFFEE7000080B483B000AF0023D0
:100724007B600F4B5B6C0E4A43F4804353640C4B69
:100734005B6C03F480437B607B6800233B60084B65
:100744001B6C074A43F080531364054B1B6C03F086
:1007540080533B603B6800BF0C37BD4680BC70478C
:100764000038024080B400AFFEE780B400AFFEE77B
:1007740080B400AFFEE780B400AFFEE780B400AF02
:10078400FEE780B400AF00BFBD4680BC704780B4B4
:1007940000AF00BFBD4680BC704780B400AF00BF4F
:1007A400BD4680BC704780B500AF00F0A3FB00BF1E
:1007B40080BD000080B500AF024802F0C8F800BF59
:1007C40080BD00BF88A0002080B586B000AFF8606F
:1007D400B9607A6000237B610AE0AFF300800146D0
:1007E400BB685A1CBA60CAB21A707B6901337B6158
:1007F4007A697B689A42F0DB7B6818461837BD46F5
:1008040080BD80B586B000AFF860B9607A6000231F
:100814007B6109E0BB685A1CBA601B781846AFF3C9
:1008240000807B6901337B617A697B689A42F1DBE2
:100834007B6818461837BD4680BD80B483B000AFCE
:1008440078604FF0FF3318460C37BD4680BC7047C4
:1008540080B483B000AF786039603B684FF40052D5
:100864005A60002318460C37BD4680BC704780B4DC
:1008740083B000AF7860012318460C37BD4680BCB6
:10088400704780B485B000AFF860B9607A60002327
:1008940018461437BD4680BC7047000080B487B04A
:1008A40000AF7860144A154BD31A7B617B693B61B6
:1008B400134B1B68002B02D1114B124A1A60104BC8
:1008C4001A687B6813443A699A4205D20E4B0C228B
:1008D4001A604FF0FF3309E0094B1B68FB60084BBB
:1008E4001A687B681344064A1360FB6818461C3771
:1008F400BD4680BC704700BF000002200004000019
:10090400FC010020B0A60020A8A6002080B400AFFF
:1009140000BFBD4680BC704780B584B000AF09F00D
:10092400B5FEF8600F4B7B603B1D07221946F86843
:1009340008F02EFF0346FB7297F90B30002B09D108
:10094400FF21F86808F0C6FFF8600749F86809F065
:1009540019FF03E0F968012007F0CAFC00BF103753
:10096400BD4680BDC0A801027109000880B586B0EB
:1009740000AFF860B9601346FB710121B86809F053
:10098400FBFC0C2007F00CFB38613B69002B1FD0EB
:100994003B6901221A703B69BA685A603B690022BC
:1009A4005A703B6900229A603969B86809F076FE8A
:1009B4000D49B86809F082FE0C49B86809F0C0FE18
:1009C40000220B49B86809F0F3FE0023FB7505E02B
:1009D4003969B86800F065F9FF23FB7597F917309A
:1009E40018461837BD4680BDF90900082D0B0008CC
:1009F400510B000880B588B000AFF860B9607A6028
:100A0400FB70FB68002B05D1434BC3224349444888
:100A140011F0A6F9FB68BB617B68002B16D1BB699A
:100A240003221A70BB699B68002B04D1B969B868AA
:100A340000F037F907E03B49B86809F061FEB9698D
:100A4400B86800F0DBF80023FB775FE097F9033028
:100A5400002B0BD07B68002B05D0BB6900229A6069
:100A6400786808F083F9FB78FB774FE0BB691B7863
:100A7400012B10D1BB6902221A70BB697A689A6093
:100A84002849B86809F03CFEB969B86800F030F943
:100A94000023FB773AE0BB691B78022B15D1BB69B5
:100AA4009B68002B07D1BB697A689A60B969B868FA
:100AB40000F01EF906E0BB699B687B617968786980
:100AC40008F076FA0023FB7720E0BB691B78032B40
:100AD4000ED17B681B891946B86808F0F3FFBB691F
:100AE40000229A60786808F041F90023FB770DE052
:100AF4007B681B891946B86808F0E4FFBB690022CB
:100B04009A60786808F032F90023FB7797F91F3070
:100B140018462037BD4680BD702901088C2901087C
:100B240098290108B10B000880B584B000AF786043
:100B34000B46FB707B68FB60FB68002B02D0F868F7
:100B440007F0F0F800BF1037BD4680BD80B584B013
:100B540000AF786039607B68BB60BB68002B17D03E
:100B6400BB689B68002B08D00F49386809F0C8FDA2
:100B7400B968386800F042F807E0BB681B78032BBB
:100B840003D1B968386800F08CF80023FB7304E0E3
:100B9400386808F0F1FDF323FB7397F90F3018461A
:100BA4001037BD4680BD00BFB10B000880B586B0CC
:100BB40000AFF860B9601346FB80FB687B617B691A
:100BC40000225A707B699B68002B08D00A49B868D8
:100BD40009F096FD7969B86800F010F807E07B69C0
:100BE4001B78032B03D17969B86800F05AF8002305
:100BF40018461837BD4680BDB10B000880B586B0D5
:100C040000AF786039600023FB7536E03B689B6871
:100C14003B613B6959683B695A89012378680CF048
:100C240075FB0346FB7597F91730002B1DD13B6903
:100C34005B89FB813B691A683B689A603B689B68E7
:100C4400002B04D03B689B68184608F039F93869D2
:100C540008F08CF803467B737B7B002BF7D0FB8971
:100C64001946786808F02EFF07E097F91730B3F1BA
:100C7400FF3F02D13B683A699A6097F91730002B1D
:100C84000BD13B689B68002B07D03B689B685A8953
:100C94007B68B3F860309A42B8D900BF1837BD46B4
:100CA40080BD80B582B000AF78603960002178687B
:100CB40009F0F4FC0021786809F022FD002178682D
:100CC40009F0FCFC0021786809F03AFD00220021BB
:100CD400786809F06DFD3B68002B02D0386807F096
:100CE40021F8786808F07EFC00BF0837BD4680BD57
:100CF400B0B5A0B000AF786039607B685B683B67D3
:100D04007B681B8BA7F87E3007F1700318460FF041
:100D140083FAB8673B681A787B6F1A703B685A6825
:100D24007B6F5A603B689A687B6F9A6007F10C038B
:100D340064220021184611F078F83B689B685968D2
:100D44003B689B681B891A4607F10C03184611F08F
:100D540074F807F10C031846FFF732FA03461A46F3
:100D640007F10C031344244A1D4614460FCC286093
:100D74006960AA60EB6003CC2861696123782B76F3
:100D84007B6F9B6807F10C025A603B689B681A8969
:100D94003B689B685B89D31A9CB207F10C03184625
:100DA400FFF70EFA03469AB27B6F9B68224492B215
:100DB4001A8107F10C031846FFF702FA02467B6F0B
:100DC4009B6892B25A81796F7868FFF717FF07F131
:100DD4000C031846FFF7F4F9024607F10C03114619
:100DE400184610F011FA3B689B68184607F0BEFFDE
:100DF40000BF8037BD46B0BDC0290108DFF834D03C
:100E0400FFF784FD0C480D490D4A002302E0D45835
:100E1400C4500433C4188C42F9D30A4A0A4C002340
:100E240001E013600432A242FBD311F06FF8FFF724
:100E34004FFB70470000022000000020E00100206A
:100E440014480108E0010020B0A60020FEE70000DD
:100E540080B500AF0E4B1B680D4A43F4007313605A
:100E64000B4B1B680A4A43F480631360084B1B68EE
:100E7400074A43F480731360032000F047F900200D
:100E840000F008F8FFF748FC0023184680BD00BFB7
:100E9400003C024080B582B000AF7860124B1A6803
:100EA400124B1B7819464FF47A73B3FBF1F3B2FB80
:100EB400F3F3184600F05FF90346002B01D0012339
:100EC4000EE07B680F2B0AD8002279684FF0FF30C0
:100ED40000F027F9064A7B681360002300E0012331
:100EE40018460837BD4680BD0000002008000020D9
:100EF4000400002080B400AF054B1B781A46054B54
:100F04001B681344034A136000BFBD4680BC70478E
:100F1400080000200002002080B400AF024B1B68D0
:100F24001846BD4680BC70470002002080B584B0DE
:100F340000AF7860FFF7F0FFB8607B68FB60FB6888
:100F4400B3F1FF3F05D00A4B1B781A46FB681344E4
:100F5400FB6000BFFFF7E0FF0246BB68D31AFA68E4
:100F64009A42F7D800BF00BF1037BD4680BD00BF0E
:100F74000800002080B485B000AF78607B6803F07F
:100F84000703FB600C4BDB68BB60BA684FF6FF03DA
:100F94001340BB60FB681A02BB68134343F0BF6392
:100FA40043F40033BB60044ABB68D36000BF14370A
:100FB400BD4680BC704700BF00ED00E080B400AFC8
:100FC400044BDB681B0A03F007031846BD4680BCCC
:100FD400704700BF00ED00E080B483B000AF03466B
:100FE400FB7197F90730002B0BDBFB7903F01F0231
:100FF400064997F907305B09012000FA02F241F82B
:10100400232000BF0C37BD4680BC704700E100E0E0
:1010140080B483B000AF03463960FB7197F90730A1
:10102400002B0ADB3B68DAB20C4997F9073012014E
:10103400D2B20B4483F800230AE03B68DAB20849D1
:10104400FB7903F00F03043B1201D2B20B441A766E
:1010540000BF0C37BD4680BC704700BF00E100E014
:1010640000ED00E080B489B000AFF860B9607A6048
:10107400FB6803F00703FB61FB69C3F10703042B5F
:1010840028BF0423BB61FB690433062B02D9FB6927
:10109400033B00E000237B614FF0FF32BB6902FA9F
:1010A40003F3DA43BB681A407B699A404FF0FF317F
:1010B4007B6901FA03F3D9437B680B401343184659
:1010C4002437BD4680BC704780B582B000AF7860DD
:1010D4007B68013BB3F1807F01D301230FE00A4A0F
:1010E4007B68013B53600F214FF0FF30FFF790FF07
:1010F400054B00229A60044B07221A60002318460D
:101104000837BD4680BD00BF10E000E080B582B066
:1011140000AF78607868FFF72DFF00BF0837BD4641
:1011240080BD80B586B000AF0346B9607A60FB73BA
:1011340000237B61FFF742FF78617A68B9687869B8
:10114400FFF790FF024697F90F3011461846FFF754
:101154005FFF00BF1837BD4680BD80B582B000AFC9
:101164000346FB7197F907301846FFF735FF00BFB8
:101174000837BD4680BD80B582B000AF786078681E
:10118400FFF7A2FF034618460837BD4680BD00009E
:1011940080B588B000AF78600023FB610023FB605A
:1011A400A34BBB6100237B6100233B617B68002B65
:1011B40001D1012373E17B6893F84430DBB2002B47
:1011C40006D17B68002283F84520786804F054FD3A
:1011D4000023BB60974B5B6C964A43F48043536493
:1011E400944B5B6C03F48043BB60BB68924B5B68BD
:1011F400914A23F4000353608F4B5A687B681B6A3F
:101204008D4913434B607B681B6803F580531B684F
:101214007A68126843F0010302F580521360FFF705
:101224007BFE786111E0FFF777FE02467B69D31AF3
:10123400B3F5FA7F09D97B68032283F844207B68DD
:10124400002283F84520032329E17B681B6803F50A
:1012540080531B6803F00103002BE4D17B681B68F7
:101264001B69FB61FB6923F01C03FB6103F0AAF813
:10127400B861BB69714A934208D9BB69704A934209
:1012840004D8FB6943F00803FB611AE0BB696C4AAC
:10129400934208D9BB69664A934204D2FB6943F07E
:1012A4000C03FB610DE0BB69614A934203D3BB6944
:1012B400644A934204D9FB6943F00403FB6100E0F0
:1012C40000BF7B681B68FA691A614FF40042002171
:1012D400786800F08EFB0346002B0BD001233B61A2
:1012E4003969786800F044FD7B68012283F8442062
:1012F4000123D4E0FF20FFF719FE7B685B68002B15
:1013040000F0A280FFF708FE786107F10C031A468B
:101314000121786800F005FBFFF7FEFD02467B69BA
:10132400D31A41F2883293420FD901233B613969C0
:10133400786800F01DFD7B68012283F844207B68F7
:10134400002283F845200323A9E0FB6803F004038B
:10135400002BDAD04FF480520021786800F049FB6A
:101364000346002B0BD001233B613969786800F0F8
:10137400FFFC7B68012283F8442001238FE0FFF700
:10138400CBFD786107F10C031A460121786800F05F
:10139400C8FAFFF7C1FD02467B69D31A41F28832CD
:1013A40093420FD901233B613969786800F0E0FC6E
:1013B4007B68012283F844207B68002283F845205F
:1013C40003236CE0FB6803F02003002BDAD007F161
:1013D4000C031A461021786800F0A3FA0346002B88
:1013E4000BD001233B613969786800F0C1FC7B684C
:1013F400012283F84420012351E0FB6803F0040335
:10140400002B04D07B684FF40062DA6002E07B6852
:101414000022DA60FB6803F00203002B03D07B6830
:1014240000229A6032E07B684FF480429A602DE09B
:10143400008793030038024000380140FF2C31013B
:10144400BF0E1602FFE0F5057B68DB68DB089AB285
:101454007B689B685B089BB213439BB21A460021CE
:10146400786800F0C6FA0346002B0BD001233B61D9
:101474003969786800F07CFC7B68012283F8442099
:1014840001230CE040F6FF70FFF750FD39697868DE
:1014940000F06EFC7B68012283F844200023184688
:1014A4002037BD4680BD00BF80B487B000AFF86070
:1014B400B9607A603B6000237B61FB6893F8453038
:1014C400012B01D1022351E0FB68012283F845205E
:1014D400FB68022283F84420FB68BA68DA620023BE
:1014E4007B6130E07B695B01BA6813443B613B6913
:1014F4004FF480121A607B6940F2F45202FB03F34A
:101504007A6813441A463B699A60FB68DB69002BCE
:1015140005D13B691B6843F440023B691A603B6890
:10152400013B7A699A4208D27B6901335B01BA684C
:1015340013441A463B69DA6002E0BA683B69DA6030
:101544007B6901337B617A693B689A42CAD3FB6841
:101554001A68BB6802F580521361FB68012283F8A4
:101564004420FB68002283F84520002318461C37DA
:10157400BD4680BC704780B487B000AFF860B960E6
:101584007A603B6000237B61FB6893F84530012B54
:1015940001D1022355E0FB68012283F84520FB6852
:1015A400022283F84420FB68BA689A6200237B61B4
:1015B40034E07B695B01BA6813443B613B694FF0DB
:1015C40000421A603B6944F2F4525A607B6940F26B
:1015D400F45202FB03F37A6813441A463B699A6097
:1015E400FB689B69012B05D13B695B6823F00042D2
:1015F4003B695A603B68013B7A699A4208D27B692D
:1016040001335B01BA6813441A463B69DA6002E0AD
:10161400BA683B69DA607B6901337B617A693B684C
:101624009A42C6D3FB681A68BB6802F58052D3603D
:10163400FB68012283F84420FB68002283F84520DC
:10164400002318461C37BD4680BC704780B487B061
:1016540000AF7860396000237B610023FB600023C6
:101664003B617B6893F84530012B01D10223CCE028
:101674007B68012283F845207B68022283F844209A
:101684003B68002B09D17B68012283F844207B68E6
:10169400002283F845200123B7E07B68DB6A1B68DE
:1016A400002B09DA7B68122283F844207B6800222D
:1016B40083F845200123A8E03B6840F2F4529342AA
:1016C40015D93B68534AA2FB03239B0A7B613A6802
:1016D400504BA3FB02139B0A40F2F45101FB03F3AA
:1016E400D31A002B05D07B6901337B6101E0012310
:1016F4007B617B69012B1CD17B68DB6A1A687B6880
:10170400DB6A42F040521A607B68DB6A3A68C2F3D3
:101714000C025A607B68DB6A1A687B68DB6A42F0F9
:1017240000421A607B68DB6ADB681A467B68DA620F
:101734004BE000233B6144E07B68DB6A1A687B680A
:10174400DB6A22F040521A603B69002B07D17B68A8
:10175400DB6A1A687B68DB6A42F080521A607B6835
:10176400DB6A40F2F4525A607B69013B3A699A425F
:1017740016D17B68DB6A1A687B68DB6A42F0005228
:101784001A607B69244A03FB02F23B68134403F2A8
:10179400F453FB607B68DB6AFA68C2F30C025A609C
:1017A4007B68DB6A1A687B68DB6A42F000421A6075
:1017B4007B68DB6ADB681A467B68DA623B69013363
:1017C4003B613A697B699A42B6D37B681B6803F52F
:1017D40080535B6903F00403002B0DD07B681B6806
:1017E40003F580531A46042353617B681B6803F591
:1017F40080531A46002353607B68012283F84420F7
:101804007B68002283F84520002318461C37BD4618
:1018140080BC70470BB002AC0CFAFFFF80B485B0FB
:1018240000AF78600023FB607B6893F84530012BA0
:1018340001D1022370E07B68012283F845207B6894
:10184400022283F844207B689B6A1B68002B5ADBC6
:101854007B689B6A1B6803F48073002B30D07B6821
:101864009B6B5A1C7B689A637B689B6B012B03D12F
:101874007B689A6A7B681A637B689A6A7B685A6396
:101884007B689B6A1B681B0CC3F30D03043BFB6062
:101894007B68FA68DA637B681B6B9A687B681A64F6
:1018A4007B689B6ADB681A467B689A627B680122C4
:1018B40083F844207B68002283F8452000232BE032
:1018C4007B689B6A1B6803F40073002B10D07B6851
:1018D4009A6A7B681A637B6800225A637B680122D8
:1018E4009A637B689B6ADB681A467B689A620AE0A3
:1018F4007B689B6B5A1C7B689A637B689B6ADB687A
:101904001A467B689A627B68012283F844207B68CC
:10191400002283F84520012318461437BD4680BCB5
:10192400704780B586B000AFF8600B467A607B8163
:1019340000237B6100233B61FB6893F84430DBB2F6
:10194400822B01D1022350E0FB68822283F84420D9
:10195400FB681B681B697B617B6903F01C037B616B
:10196400FB681B8ADB029BB27A6913437B617B8928
:101974009B0103F4F8637A6913437B617B6923F069
:1019840002037B617B6943F001037B61FB681B6895
:101994007A691A61FFF7C0FA386115E0FFF7BCFAFB
:1019A40002463B69D31AB3F5803F09D3FB68012291
:1019B40083F84420FB68002283F84520032314E0C5
:1019C400FB681B681B697B617B6903F00103002BC7
:1019D400E4D1FB681B685B699BB21A467B681A609A
:1019E400FB68012283F84420002318461837BD46BB
:1019F40080BD80B586B000AFF8600B467A607B810D
:101A040000237B6100233B61FB6893F84430DBB225
:101A1400422B01D102234EE0FB68422283F844208A
:101A2400FB681B681B697B617B6903F01C037B619A
:101A3400FB681B8ADB029BB27A6913437B617B8957
:101A44009B0103F4F8637A6913437B617B6943F078
:101A540002037B617B6943F001037B617B689AB27B
:101A6400FB681B685A61FB681B687A691A61FFF797
:101A740053FA386115E0FFF74FFA02463B69D31A6F
:101A8400B3F5803F09D3FB68012283F84420FB6847
:101A9400002283F8452003230DE0FB681B681B69C3
:101AA4007B617B6903F00103002BE4D1FB68012215
:101AB40083F84420002318461837BD4680BD80B5FE
:101AC40082B000AF78607B6893F84530012B01D178
:101AD40002231FE07B68012283F845207B680222F1
:101AE40083F84420786800F03FFB786800F076FBC8
:101AF400786800F001FC786800F0AAFB786800F0D0
:101B0400D1FB7B68012283F844207B68002283F8A0
:101B14004520002318460837BD4680BD80B582B0F5
:101B240000AF78607B6893F84530012B01D1022324
:101B34001FE07B68012283F845207B68022283F83A
:101B44004420786800F099FB786800F0C0FB78685E
:101B540000F061FB786800F0CFFB786800F021FBAF
:101B64007B68012283F844207B68002283F84520A7
:101B7400002318460837BD4680BD000080B584B0F8
:101B840000AF786039600023FB607B6893F84530D0
:101B9400012B01D10223E4E07B68012283F8452074
:101BA4007B68022283F844203B68002B00F0B1805C
:101BB4007B681B681B68FB60FA686C4B1340FB6016
:101BC4003B681A683B685B681A433B689B681A4326
:101BD4003B68DB681A437B689B681A433B681B6954
:101BE4001A433B685B691A437B68DB681A433B68AA
:101BF4009B691A433B68DB691A433B681B6A1A43B7
:101C04003B685B6A1A433B689B6A1343FA68134355
:101C1400FB607B681B68FA681A607B681B681B683A
:101C2400FB600120FFF782F97B681B68FA681A6081
:101C34003B68DA6A3B681B6B1A433B685B6B1A436D
:101C44003B689B6B1A433B68DB6B1A433B681B6C1A
:101C54001A433B685B6C42EA03013B689A6C7B68FD
:101C64001B680A435A607B681B685B68FB60012041
:101C7400FFF75CF97B681B68FA685A607B681B682D
:101C84003A68D26C9A607B681B683A68126DDA60B5
:101C94007B681B689B69FB60FA684FF641731340CD
:101CA400FB603B685B6D1A043B689B6D1A433B68A1
:101CB400DB6D1A433B681B6E1A433B685B6E1A4329
:101CC4003B689B6E1343FA681343FB607B681B6895
:101CD400FA689A617B681B689B69FB600120FFF7C7
:101CE40025F97B681B68FA689A613B68D96E3B6882
:101CF4001A6F7B681B680A43DA617B681B68DB69BF
:101D0400FB600120FFF712F97B681B68FA68DA614F
:101D14001EE07B681B681B68FB60FB6823F4904330
:101D2400FB607B689A687B68DB681343FA6813433B
:101D3400FB607B681B68FA681A607B681B681B6819
:101D4400FB600120FFF7F2F87B681B68FA681A60F1
:101D54007B68012283F844207B68002283F84520B5
:101D6400002318461037BD4680BD00BF0F8120FFF9
:101D740080B5B0B000AF786039600023C7F8BC30DC
:101D84003B68002B07D07B684FF40062DA607B6805
:101D94004FF480429A600023BB640023FB64002359
:101DA4003B6500237B650023BB650023FB657B68E3
:101DB400DB69002B03D14FF480633B6601E0002311
:101DC4003B664FF400737B660023BB660023FB660F
:101DD40000233B6700237B670023BB674023FB672B
:101DE4000023C7F880300023C7F884300023C7F8E5
:101DF40088300023C7F88C300023C7F890300023C4
:101E0400C7F894300023C7F898300023C7F89C30F3
:101E14008023C7F8A0300023C7F8A4300023C7F8F4
:101E2400A8300023C7F8AC300023C7F8B030002333
:101E3400C7F8B4300023C7F8B8307B681B681B6848
:101E4400C7F8BC30D7F8BC20AA4B1340C7F8BC3045
:101E5400BA6CFB6C1A433B6D1A437B6D1A437B6867
:101E64009B681A43BB6D1A43FB6D1A437B68DB689E
:101E74001A433B6E1A437B6E1A43BB6E1A43FB6EC6
:101E84001A433B6F1343D7F8BC201343C7F8BC3045
:101E94007B681B68D7F8BC201A607B681B681B68CA
:101EA400C7F8BC300120FFF741F87B681B68D7F8FE
:101EB400BC201A607A6FBB6F1A43FB6F1A43D7F8C2
:101EC40080301A43D7F884301A43D7F888301A433D
:101ED400D7F88C3042EA0301D7F890207B681B685E
:101EE4000A435A607B681B685B68C7F8BC300120F2
:101EF400FFF71CF87B681B68D7F8BC205A607B6826
:101F04001B68D7F894209A607B681B68D7F89820E0
:101F1400DA607B681B689B69C7F8BC30D7F8BC20C3
:101F24004FF641731340C7F8BC30D7F89C301A04FD
:101F3400D7F8A0301A43D7F8A4301A43D7F8A830FA
:101F44001A43D7F8AC301A43D7F8B0301343D7F854
:101F5400BC201343C7F8BC307B681B68D7F8BC208F
:101F64009A617B681B689B69C7F8BC300120FEF747
:101F7400DDFF7B681B68D7F8BC209A61D7F8B410E2
:101F8400D7F8B8207B681B680A43DA617B681B6852
:101F9400DB69C7F8BC300120FEF7C8FF7B681B680B
:101FA400D7F8BC20DA610023BB604FF00073FB60FC
:101FB40000233B614FF400137B610023BB610023CA
:101FC400FB6100233B6200237B620423BB624FF06E
:101FD4000073FB624FF480333B634FF480037B63F5
:101FE4004FF40053BB638023FB6300233B64002353
:101FF4007B647B681B6803F580539B69C7F8BC301E
:10200400D7F8BC203C4B1340C7F8BC30BA68FB6817
:102014001A433B691A437B691A43BB691A43FB6938
:102024001A433B6A1A437B6A1A43BB6A1343D7F8C1
:10203400BC201343C7F8BC307B681B6803F580538E
:102044001A46D7F8BC3093617B681B6803F580534C
:102054009B69C7F8BC300120FEF768FF7B681B68EA
:1020640003F580531A46D7F8BC309361FA6A3B6B88
:102074001A437B6B1A43BB6B1A43FB6B1A433B6CCF
:102084009B001A437B6C13437A68126843F4000381
:1020940002F5805213607B681B6803F580531B684C
:1020A400C7F8BC300120FEF741FF7B681B6803F5CD
:1020B40080531A46D7F8BC3013607B689B69012BA8
:1020C4000DD17B681B6803F58053DB697A6812685D
:1020D40043F4803343F0400302F58052D3617B68BC
:1020E4005B691A460021786800F008F800BFC03721
:1020F400BD4680BD0F8120FF233FDEF880B487B04A
:1021040000AFF860B9607A607B6805331B781B0206
:102114007A680432127813437B61BA68104B134413
:102124001A467B6913607B6803331B781A067B6845
:1021340002331B781B041A437B6801331B781B0290
:1021440013437A68127813437B61BA68054B1344CE
:102154001A467B69136000BF1C37BD4680BC7047BC
:10216400408002404480024080B584B000AF786073
:102174000023FB607B681B681A687B681B6842F05D
:1021840008021A607B681B681B68FB60012000F072
:10219400D9F87B681B68FA681A6000BF1037BD461F
:1021A40080BD80B584B000AF78600023FB607B689D
:1021B4001B681A687B681B6822F008021A607B6837
:1021C4001B681B68FB60012000F0BCF87B681B687F
:1021D400FA681A6000BF1037BD4680BD80B584B070
:1021E40000AF78600023FB607B681B681A687B681B
:1021F4001B6842F004021A607B681B681B68FB6062
:10220400012000F09FF87B681B68FA681A6000BF21
:102214001037BD4680BD80B584B000AF7860002320
:10222400FB607B681B681A687B681B6822F00402E9
:102234001A607B681B681B68FB60012000F082F851
:102244007B681B68FA681A6000BF1037BD4680BD02
:1022540080B483B000AF78607B681B6803F580535B
:102264009B697A68126843F4005302F580529361C3
:1022740000BF0C37BD4680BC704780B483B000AF4C
:1022840078607B681B6803F580539B697A681268E1
:1022940023F4005302F58052936100BF0C37BD460E
:1022A40080BC704780B483B000AF78607B681B68E3
:1022B40003F580539B697A68126843F0020302F5C0
:1022C4008052936100BF0C37BD4680BC704780B418
:1022D40083B000AF78607B681B6803F580539B690B
:1022E4007A68126823F0020302F58052936100BFFA
:1022F4000C37BD4680BC704780B584B000AF7860B1
:102304000023FB607B681B6803F580539B697A6834
:10231400126843F4801302F5805293617B681B6852
:1023240003F580539B69FB60012000F00BF87B6888
:102334001A68FB6802F58052936100BF1037BD46EE
:1023440080BD000080B485B000AF78600A4B1B6884
:102354000A4AA2FB03235B0A7A6802FB03F3FB60CD
:1023640000BFFB685A1EFA60002BF9D100BF00BF02
:102374001437BD4680BC704700000020D34D621066
:1023840080B487B000AF7860396000237B616FE16F
:102394003B681A6801217B6901FA03F31340FB606F
:1023A400FB68002B00F061813B685B6803F003036A
:1023B400012B05D03B685B6803F00303022B30D18B
:1023C4007B689B683B617B695B00032202FA03F331
:1023D400DB433A6913403B613B68DA687B695B0025
:1023E40002FA03F33A6913433B617B683A699A60E2
:1023F4007B685B683B6101227B6902FA03F3DB4380
:102404003A6913403B613B685B681B0903F00102B6
:102414007B6902FA03F33A6913433B617B683A69C7
:102424005A603B685B6803F00303032B17D07B6897
:10243400DB683B617B695B00032202FA03F3DB4345
:102444003A6913403B613B689A687B695B0002FA16
:1024540003F33A6913433B617B683A69DA603B688A
:102464005B6803F00303022B23D17B69DA087B68E2
:10247400083253F822303B617B6903F007039B0069
:102484000F2202FA03F3DB433A6913403B613B68D2
:102494001A697B6903F007039B0002FA03F33A69A4
:1024A40013433B617B69DA087B680832396943F876
:1024B40022107B681B683B617B695B00032202FA84
:1024C40003F3DB433A6913403B613B685B6803F009
:1024D40003027B695B0002FA03F33A6913433B612D
:1024E4007B683A691A603B685B6803F44033002BED
:1024F40000F0BB800023BB60644B5B6C634A43F415
:1025040080435364614B5B6C03F48043BB60BB68E2
:102514005F4A7B699B08023352F823303B617B6935
:1025240003F003039B000F2202FA03F3DB433A692F
:1025340013403B617B68574A934231D07B68564ACB
:1025440093422BD07B68554A934225D07B68544AEA
:1025540093421FD07B68534A934219D07B68524AF6
:10256400934213D07B68514A93420DD07B68504A02
:10257400934207D07B684F4A934201D1082310E06D
:1025840009230EE007230CE006230AE0052308E0F4
:10259400042306E0032304E0022302E0012300E015
:1025A40000237A6902F00302920093401A463B69C1
:1025B40013433B6136497B699B0802333A6941F80E
:1025C40023203D4B9B683B61FB68DB433A69134026
:1025D4003B613B685B6803F48013002B03D03A69CA
:1025E400FB6813433B61344A3B699360324BDB68BD
:1025F4003B61FB68DB433A6913403B613B685B68C2
:1026040003F40013002B03D03A69FB6813433B61C6
:10261400294A3B69D360284B5B683B61FB68DB4319
:102624003A6913403B613B685B6803F40033002B59
:1026340003D03A69FB6813433B611F4A3B6953600B
:102644001D4B1B683B61FB68DB433A6913403B61EC
:102654003B685B6803F48033002B03D03A69FB6862
:1026640013433B61144A3B6913607B6901337B610B
:102674003B681A687B6922FA03F3002B7FF488AE67
:1026840000BF00BF1C37BD4680BC70470038024005
:1026940000380140000002400004024000080240EB
:1026A400000C0240001002400014024000180240D6
:1026B400001C024000200240003C014080B483B072
:1026C40000AF78600B467B8013467B707B78002BD1
:1026D40003D07A887B689A6103E07B881A047B685C
:1026E4009A6100BF0C37BD4680BC704780B586B088
:1026F40002AF78607B68002B01D1012301E17B6884
:102704001B68BB607B6893F89534DBB2002B06D161
:102714007B68002283F8942478680EF0A9FE7B6815
:10272400032283F89524BB68B3F1A04F02D17B68E0
:1027340000229A717B681B68184601F059FF7B6878
:1027440018687B681A7C8DF8002004330ECB01F0E6
:1027540043FE0346002B05D07B68022283F89524B0
:102764000123CEE07B681B680021184601F050FF6E
:102774000346002B05D07B68022283F895240123AD
:10278400BFE00023FB734AE0FA7B79681346DB0061
:1027940013449B000B44153301221A70FA7B7968A9
:1027A4001346DB0013449B000B441433FA7B1A706A
:1027B400FA7BFB7B98B279681346DB0013449B00D9
:1027C4000B442E3302461A80FA7B79681346DB00E9
:1027D40013449B000B44183300221A70FA7B796867
:1027E4001346DB0013449B000B441C3300221A6085
:1027F400FA7B79681346DB0013449B000B442033B7
:1028040000221A60FA7B79681346DB0013449B00AC
:102814000B44243300221A60FB7B0133FB737B6877
:102824001B79FA7B9A42AFD30023FB7344E0FA7B13
:1028340079681346DB0013449B000B4403F25523D1
:1028440000221A70FA7B79681346DB0013449B005C
:102854000B4403F51573FA7B1A70FA7B79681346F7
:10286400DB0013449B000B4403F5167300221A701B
:10287400FA7B79681346DB0013449B000B4403F591
:10288400177300221A60FA7B79681346DB0013443D
:102894009B000B4403F5187300221A60FA7B7968D5
:1028A4001346DB0013449B000B4403F51973002209
:1028B4001A60FB7B0133FB737B681B79FA7B9A42BA
:1028C400B5D37B6818687B681A7C8DF800200433C4
:1028D4000ECB01F0E9FE0346002B05D07B680222F3
:1028E40083F8952401230CE07B6800225A747B68EA
:1028F400012283F895247B681B68184602F020FFA8
:10290400002318461037BD4680BD80B582B000AFA5
:1029140078607B6893F89434012B01D1022312E090
:102924007B68012283F894247B681B68184601F0B5
:102934004FFE7B681B68184602F0E2FE7B680022AB
:1029440083F89424002318460837BD4680BD90B50B
:102954008DB000AF78607B681B683B623B6AFB61AB
:102964007B681B68184602F099FF0346002B40F071
:102974007E847B681B68184602F002FF0346002B26
:1029840000F07484FB6903F500639B681B0AC3F3BE
:102994000D027B68C3F8D4247B681B68184602F0D8
:1029A400EFFE034603F00203022B07D17B681B688A
:1029B4005A697B681B6802F002025A617B681B68D3
:1029C400184602F0DDFE034603F01003102B61D11C
:1029D4007B681B689A697B681B6822F010029A6105
:1029E4003B6A1B6ABB61BB6903F00F021346DB0041
:1029F40013449B0003F514737A68134404337B6116
:102A0400BB695B0C03F00F03022B24D1BA6947F6B0
:102A1400F0731340002B35D07B69D968BB691B095F
:102A24009BB2C3F30A039BB21A46386A02F01AFD3A
:102A34007B69DA68BB691B09C3F30A031A447B691F
:102A4400DA607B695A69BB691B09C3F30A031A4438
:102A54007B695A6116E0BB695B0C03F00F03062B1C
:102A640010D17B6803F29C4308221946386A02F0AD
:102A7400F9FC7B695A69BB691B09C3F30A031A444D
:102A84007B695A617B681B689A697B681B6842F0A2
:102A940010029A617B681B68184602F071FE0346B7
:102AA40003F40023B3F5002F40F0A78000237B62DA
:102AB4007B681B68184602F075FEB86299E0BB6A31
:102AC40003F00103002B00F08E807B681B687A6A98
:102AD400D2B21146184602F097FE38613B6903F002
:102AE4000103002B0CD07B6A5A01FB69134403F5E4
:102AF40030631A4601239360796A786800F092FE85
:102B04003B6903F00803002B0CD07B6A5A01FB6974
:102B1400134403F530631A4608239360796A78688E
:102B240000F068FF3B6903F01003002B08D07B6AB8
:102B34005A01FB69134403F530631A46102393606A
:102B44003B6903F00203002B30D03B6A5B6903F05E
:102B54008003802B09D1FB6903F500635B68FA6984
:102B640002F5006243F4806353607A6A1346DB0023
:102B740013449B0003F514737A68134404337B6194
:102B84007B69DB78012B08D17B690022DA707B6AD0
:102B9400DBB2194678680EF07FFD7B6A5A01FB6947
:102BA400134403F530631A46022393603B6903F030
:102BB4002003002B08D07B6A5A01FB69134403F5F8
:102BC40030631A46202393603B6903F40053002BBF
:102BD40009D07B6A5A01FB69134403F530631A4632
:102BE4004FF4005393607B6A01337B62BB6A5B08DA
:102BF400BB62BB6A002B7FF462AF7B681B6818461C
:102C040002F0BEFD034603F48023B3F5802F40F0A9
:102C1400DB807B681B68184602F0DDFDB862002388
:102C24007B62CDE0BB6A03F00103002B00F0C2809D
:102C34007B681B687A6AD2B21146184602F001FE1C
:102C440038613B6903F00103002B57D07B6A03F022
:102C54000F03012202FA03F3FB60FB6903F500632F
:102C64005A6BFB68DB43F96901F5006113404B6360
:102C74007B6A5A01FB69134403F510631A46012366
:102C840093607B689B79012B32D179687A6A134609
:102C9400DB0013449B000B442033196878687A6A7C
:102CA4001346DB0013449B0003441C331B68194484
:102CB40078687A6A1346DB0013449B00034420338C
:102CC40019607B6A002B13D179687A6A1346DB009A
:102CD40013449B000B4424331B68002B08D17B68EE
:102CE40018687B6803F29C431A46012102F006FE31
:102CF4007B6ADBB2194678680EF049FC3B6903F045
:102D04000803002B08D07B6A5A01FB69134403F5BE
:102D140010631A46082393603B6903F01003002BE9
:102D240008D07B6A5A01FB69134403F510631A4601
:102D3400102393603B6903F04003002B08D07B6AA7
:102D44005A01FB69134403F510631A464023936048
:102D54003B6903F00203002B23D0796A386A01F03F
:102D640007FE7A6A1346DB0013449B0010337A682B
:102D7400134404337B617B69DB78012B08D17B69C5
:102D84000022DA707B6ADBB2194678680EF096FC92
:102D94007B6A5A01FB69134403F510631A46022344
:102DA40093603B6903F08003002B03D0796A786851
:102DB40000F0ACFC7B6A01337B62BB6A5B08BB62DC
:102DC400BB6A002B7FF42EAF7B681B68184602F0A9
:102DD400D7FC034603F00043B3F1004F14D1FB6961
:102DE40003F500635B68FA6902F5006223F00103EE
:102DF400536078680EF042FC7B681B685A697B68F4
:102E04001B6802F000425A617B681B68184602F096
:102E1400B7FC034603F40063B3F5006F12D1FB69FA
:102E240003F500639B6803F00103012B02D178686A
:102E34000EF0FEFB7B681B685A697B681B6802F412
:102E440000625A617B681B68184602F099FC0346CD
:102E540003F48053B3F5805F40F0B780FB6903F55A
:102E640000635B68FA6902F5006223F001035360B2
:102E74007B681B681021184601F07AFD0023FB6271
:102E840046E0FB6A5A01FB69134403F510631A46D2
:102E94004FF67F339360FB6A5A01FB69134403F5D1
:102EA40010631B68FA6A5101FA690A4402F5106258
:102EB40023F400131360FB6A5A01FB69134403F5FE
:102EC40030631A464FF67F339360FB6A5A01FB69FD
:102ED400134403F530631B68FA6A5101FA690A4422
:102EE40002F5306223F400131360FB6A5A01FB6994
:102EF400134403F530631B68FA6A5101FA690A4402
:102F040002F5306243F000631360FB6A0133FB6235
:102F14007B681B791A46FB6A9342B2D3FB6903F5BB
:102F24000063DB69FA6902F5006243F00113D361BF
:102F34007B68DB7B002B16D0FB6903F50063D3F8B9
:102F44008430FA6902F5006243F00B03C2F884305E
:102F5400FB6903F500635B6CFA6902F5006243F0F8
:102F64000B03536415E0FB6903F500635B69FA69BD
:102F740002F5006243F4005343F02B035361FB69F1
:102F840003F500631B69FA6902F5006243F00B0361
:102F94001361FB6903F500631B68FA6902F50062BB
:102FA40023F4FE6313607B6818687B6899797B68F7
:102FB40003F29C431A4602F0A1FC7B681B685A6921
:102FC4007B681B6802F480525A617B681B68184650
:102FD40002F0D6FB034603F40053B3F5005F23D19C
:102FE4007B681B68184602F066FC7B681B68184601
:102FF40001F034FD03461A467B68DA717B681C686D
:1030040001F0E0F901467B68DB791A46204601F0BD
:103014003DFA78680EF0E3FA7B681B685A697B68AE
:103024001B6802F400525A617B681B68184602F060
:10303400A7FB034603F00803082B0AD178680EF0B7
:10304400C0FA7B681B685A697B681B6802F0080237
:103054005A617B681B68184602F092FB034603F032
:103064008003802B23D13B6A9B6923F080023B6A57
:103074009A6101237B6214E079687A6A1346DB0063
:1030840013449B000B4403F257231B78012B05D1F7
:103094007B6ADBB21946786800F007FB7B6A013370
:1030A4007B627B681B791A467B6A9342E4D37B6814
:1030B4001B68184602F064FB034603F48013B3F55F
:1030C400801F3CD101237B622BE07B6A5A01FB69A0
:1030D400134403F510631B68BB6179687A6A13466D
:1030E400DB0013449B000B4418331B78012B15D1D0
:1030F400BB69002B12DA79687A6A1346DB00134441
:103104009B000B44173301221A707B6ADBB263F015
:103114007F03DBB21946786800F0C7FA7B6A013393
:103124007B627B681B791A467B6A9342CDD37B68AA
:103134001B685A697B681B6802F480125A617B68B9
:103144001B68184602F01CFB034603F40013B3F596
:10315400001F56D101237B6245E07B6A5A01FB695B
:10316400134403F530631B68BB6179687A6A1346BC
:10317400DB0013449B000B4403F516731B78012BEF
:103184002ED1BB69002B2BDABB6903F480327B6838
:10319400D3F8D43403F001039A4221D179687A6ACE
:1031A4001346DB0013449B000B4403F25723012214
:1031B4001A703B6A9B6943F080023B6A9A613B6ADE
:1031C4005B6903F08003002B0AD1FB6903F50063FC
:1031D4005B68FA6902F5006243F40073536008E027
:1031E4007B6A01337B627B681B791A467B6A934254
:1031F400B3D37B681B685A697B681B6802F40012AE
:103204005A617B681B68184602F0BAFA034603F059
:103214008043B3F1804F0AD178680EF061FA7B687D
:103224001B685A697B681B6802F080425A617B689C
:103234001B68184602F0A4FA034603F00403042BA7
:1032440015D17B681B685B68BB61BB6903F0040331
:10325400002B02D078680EF051FA7B681B6859681D
:103264007B681B68BA690A435A6000E000BF3437C0
:10327400BD4690BD80B582B000AF78600B46FB7050
:103284007B6893F89434012B01D1022312E07B680C
:10329400012283F894247B68FA785A747B681B684B
:1032A400FA781146184602F006FA7B68002283F881
:1032B4009424002318460837BD4680BD80B584B0E9
:1032C40000AF7860084611461A460346FB700B4669
:1032D4003B801346BB700023FB7297F90330002B2D
:1032E4000FDAFB7803F00F021346DB0013449B0054
:1032F40010337A6813440433FB60FB6801225A706C
:103304000FE0FB7803F00F021346DB0013449B002D
:1033140003F514737A6813440433FB60FB680022DA
:103324005A70FB7803F00F03DAB2FB681A703A881C
:10333400FB689A60FB68BA781A71FB685B78002BAB
:1033440004D0FB681B789AB2FB685A83BB78022BC3
:1033540002D1FB6800225A717B6893F89434012BE4
:1033640001D102230EE07B68012283F894247B6858
:103374001B68F968184601F095FB7B68002283F806
:103384009424FB7A18461037BD4680BD80B584B0BE
:1033940000AF78600B46FB7097F90330002B0FDA0F
:1033A400FB7803F00F021346DB0013449B00103339
:1033B4007A6813440433FB60FB6801225A700FE0FF
:1033C400FB7803F00F021346DB0013449B0003F564
:1033D40014737A6813440433FB60FB6800225A7048
:1033E400FB7803F00F03DAB2FB681A707B6893F87A
:1033F4009434012B01D102230EE07B68012283F86F
:1034040094247B681B68F968184601F0D1FB7B683B
:10341400002283F89424002318461037BD4680BD4B
:1034240080B586B000AFF8607A603B600B46FB72F3
:10343400FB7A03F00F021346DB0013449B0003F5F1
:103444001473FA68134404337B617B697A68DA6025
:103454007B693A681A617B6900225A617B690022A0
:103464005A70FB7A03F00F03DAB27B691A70FB68B7
:103474009B79012B02D17A687B69DA61FB68186851
:10348400FB689B791A46796901F06EFC00231846A3
:103494001837BD4680BD80B483B000AF78600B465A
:1034A400FB70FB7803F00F0279681346DB001344CA
:1034B4009B000B4403F51A731B6818460C37BD4672
:1034C40080BC704780B586B000AFF8607A603B601E
:1034D4000B46FB72FB7A03F00F021346DB00134426
:1034E4009B001033FA68134404337B617B697A6868
:1034F400DA607B693A681A617B6900225A617B69E8
:1035040001225A70FB7A03F00F03DAB27B691A7056
:10351400FB689B79012B02D17A687B69DA61FB68CD
:103524001868FB689B791A46796901F01DFC002331
:1035340018461837BD4680BD80B584B000AF7860AA
:103544000B46FB70FB7803F00F037A681279934201
:1035540001D901234FE097F90330002B0FDAFB78F0
:1035640003F00F021346DB0013449B0010337A6808
:1035740013440433FB60FB6801225A700DE0FA78AF
:103584001346DB0013449B0003F514737A68134459
:103594000433FB60FB6800225A70FB6801229A70B6
:1035A400FB7803F00F03DAB2FB681A707B6893F8B8
:1035B4009434012B01D102231DE07B68012283F89E
:1035C40094247B681B68F968184601F0A2FFFB7815
:1035D40003F00F03002B09D17B6818687B68997985
:1035E4007B6803F29C431A4602F088F97B68002248
:1035F40083F89424002318461037BD4680BD80B557
:1036040084B000AF78600B46FB70FB7803F00F03C7
:103614007A681279934201D9012342E097F9033081
:10362400002B0FDAFB7803F00F021346DB00134480
:103634009B0010337A6813440433FB60FB68012257
:103644005A700FE0FB7803F00F021346DB001344BB
:103654009B0003F514737A6813440433FB60FB681E
:1036640000225A70FB6800229A70FB7803F00F0363
:10367400DAB2FB681A707B6893F89434012B01D199
:1036840002230EE07B68012283F894247B681B6884
:10369400F968184601F0AAFF7B68002283F8942495
:1036A400002318461037BD4680BD80B584B000AFF6
:1036B40078600B46FB7097F90330002B0CDAFB782B
:1036C40003F00F021346DB0013449B0010337A68A7
:1036D40013440433FB600CE0FB7803F00F02134641
:1036E400DB0013449B0003F514737A68134404331A
:1036F400FB607B681B68F968184601F0CDFD034642
:10370400FB72FB7A18461037BD4680BD80B58AB07F
:1037140002AF786039607B681B687B617B693B61C1
:103724003A681346DB0013449B0010337A68134451
:103734000433FB60FB685A69FB681B699A4201D930
:1037440001236BE0FB681A69FB685B69D31AFB61B0
:10375400FB689B68FA699A4202D9FB689B68FB6123
:10376400FB6903339B08BB612AE0FB681A69FB68A9
:103774005B69D31AFB61FB689B68FA699A4202D9B8
:10378400FB689B68FB61FB6903339B08BB61FB68B7
:10379400D9683B68DAB2FB6998B27B689B7900937D
:1037A4000346786901F021FEFB68DA68FB691A4474
:1037B400FB68DA60FB685A69FB691A44FB685A6162
:1037C4003B685A013B69134403F510639B699BB240
:1037D400BA699A4209D8FB685A69FB681B699A421C
:1037E40003D2FB681B69002BBFD1FB681A69FB6815
:1037F4005B699A4211D83B6803F00F03012202FA75
:1038040003F3BB603B6903F500635A6BBB68DB439E
:10381400396901F5006113404B63002318462037D2
:10382400BD4680BD80B588B000AF786039607B68E4
:103834001B68FB61FB69BB61FB693C3304331B6898
:103844007B613B685A01BB69134403F530639B6891
:103854003B617B689B79012B7BD13B6903F00803B7
:10386400002B15D07B69614A934240F2B9803B69D1
:1038740003F40043002B00F0B3803B685A01BB699A
:10388400134403F530631A464FF400439360A7E0F2
:103894003B6903F02003002B09D03B685A01BB6944
:1038A400134403F530631A462023936098E03B6980
:1038B40003F02803002B40F093807B694B4A93422A
:1038C4000FD93B6903F40043002B0AD03B685A012B
:1038D400BB69134403F530631A464FF40043936005
:1038E4007EE03A681346DB0013449B0003F514732F
:1038F4007A6813440433FB60FB681A6A3B68590115
:10390400BB690B4403F530631B69C3F31203D21A7A
:10391400FB685A613B68002B14D1FB681B69002BC0
:1039240009D17B6818687B6803F29C431A4601211D
:1039340001F0E4FF06E0FB68DA68FB685B691A449F
:10394400FB68DA603B68DBB2194678680DF004FE68
:1039540046E07B69264A934224D13B6903F4004341
:10396400002B0AD03B685A01BB69134403F530634A
:103974001A464FF40043936032E03B6903F020039E
:10398400002B08D03B685A01BB69134403F530632C
:103994001A46202393603B68DBB2194678680DF021
:1039A400DBFD1DE03B68002B14D179683A681346AF
:1039B400DB0013449B000B4403F519731B68002BB5
:1039C40008D17B6818687B6803F29C431A4600217F
:1039D40001F094FF3B68DBB2194678680DF0BCFD3A
:1039E400002318462037BD4680BD00BF0A30544F1F
:1039F4000A31544F80B586B000AF786039607B6877
:103A04001B687B617B693B617B693C3304331B68C6
:103A1400FB603B685A013B69134403F530639B68C0
:103A2400BB60FB68154A93420ED9BB6803F400439C
:103A3400002B09D03B685A013B69134403F53063FA
:103A44001A464FF40043936078680DF073FDFB68E9
:103A54000A4A93420CD97B689B79012B08D17B6875
:103A640018687B6803F29C431A46012101F046FF63
:103A7400002318461837BD4680BD00BF0A30544F96
:103A840080B485B000AF78600B46FB7013463B8072
:103A94007B681B685B6ABB60FB78002B07D13B88A3
:103AA40019047B681B68BA680A439A6228E07B6839
:103AB4001B689B6A1B0CBA681344BB600023FB732E
:103AC4000DE07B681A68FB7B40339B0013445B6802
:103AD4001B0CBA681344BB60FB7B0133FB73FA7B9A
:103AE400FB78013B9A42ECD33B8818047B68196845
:103AF400FB78013BBA68024340339B000B445A6095
:103B0400002318461437BD4680BC704780B483B088
:103B140000AF78600B467B807B681B687A885A62AA
:103B2400002318460C37BD4680BC704780B58AB068
:103B340000AF78607B68002B01D101233BE27B68F6
:103B44001B6803F00103002B50D09E4B9B6803F0CD
:103B54000C03042B0CD09B4B9B6803F00C03082B29
:103B640012D1984B5B6803F48003B3F5800F0BD13B
:103B7400944B1B6803F40033002B36D07B685B68DE
:103B8400002B32D1012316E27B685A688E4BD2B2E5
:103B94001A707B685B68002B13D0FDF7BDF938629F
:103BA40008E0FDF7B9F902463B6AD31A642B01D940
:103BB400032300E2834B1B6803F40033002BF0D093
:103BC40014E0FDF7A9F9386208E0FDF7A5F902460B
:103BD4003B6AD31A642B01D90323ECE1794B1B68AC
:103BE40003F40033002BF0D100E000BF7B681B68B6
:103BF40003F00203002B77D0724B9B6803F00C0395
:103C0400002B0BD06F4B9B6803F00C03082B26D1C1
:103C14006C4B5B6803F48003002B20D1694B1B6859
:103C240003F00203002B05D07B68DB68012B01D075
:103C34000123C0E1634B1B6823F0F8027B681B6916
:103C4400F821B961B96991FAA1F179617969B1FA97
:103C540081F1C9B28B405B4913430B6044E07B683C
:103C6400DB68002B2AD0594B01221A60FDF754F966
:103C7400386208E0FDF750F902463B6AD31A022B7A
:103C840001D9032397E14F4B1B6803F00203002B78
:103C9400F0D04C4B1B6823F0F8027B681B69F821B9
:103CA4003961396991FAA1F1F960F968B1FA81F1E0
:103CB400C9B28B40434913430B6015E0434B0022C8
:103CC4001A60FDF729F9386208E0FDF725F9024684
:103CD4003B6AD31A022B01D903236CE1394B1B68CD
:103CE40003F00203002BF0D17B681B6803F0080388
:103CF400002B30D07B685B69002B16D0344B01223B
:103D04001A60FDF709F9386208E0FDF705F9024683
:103D14003B6AD31A022B01D903234CE1294B5B6F75
:103D240003F00203002BF0D015E0294B00221A60A7
:103D3400FDF7F2F8386208E0FDF7EEF802463B6A58
:103D4400D31A022B01D9032335E11E4B5B6F03F019
:103D54000203002BF0D17B681B6803F00403002BE3
:103D640000F08780002387F82730164B1B6C03F084
:103D74008053002B10D10023BB60124B1B6C114AE3
:103D840043F0805313640F4B1B6C03F08053BB60F0
:103D9400BB68012387F827300E4B1B680D4A43F498
:103DA400807313600B4B1B6803F48073002B22D1C8
:103DB400084B1B68074A43F480731360FDF7ACF8A3
:103DC400386212E0003802400238024000004742E4
:103DD400800E474200700040FDF79EF802463B6AA1
:103DE400D31A022B01D90323E5E0754B1B6803F4B6
:103DF4008073002BF0D07B689A68724BD2B21A7031
:103E04007B689B68002B15D0FDF786F838620AE0C2
:103E1400FDF782F802463B6AD31A41F28832934294
:103E240001D90323C7E0684B1B6F03F00203002B87
:103E3400EED014E0FDF770F838620AE0FDF76CF894
:103E440002463B6AD31A41F28832934201D90323D2
:103E5400B1E05D4B1B6F03F00203002BEED197F82A
:103E64002730012B05D1584B1B6C574A23F0805344
:103E740013647B689B69002B00F09C80524B9B6809
:103E840003F00C03082B61D07B689B69022B46D19D
:103E94004E4B00221A60FDF73FF8386208E0FDF748
:103EA4003BF802463B6AD31A642B01D9032382E010
:103EB400454B1B6803F00073002BF0D1424B5A684A
:103EC400434B13407A68D1697A68126A11437A685D
:103ED400526A920111437A68D26A120611437A68CF
:103EE400926A5208013A12040A43374913434B6059
:103EF400364B01221A60FDF70FF8386208E0FDF72F
:103F04000BF802463B6AD31A642B01D9032352E00F
:103F14002D4B1B6803F00073002BF0D04AE02B4BB1
:103F240000221A60FCF7F8FF386208E0FCF7F4FF9F
:103F340002463B6AD31A642B01D903233BE0224B8C
:103F44001B6803F00073002BF0D133E07B689B699E
:103F5400012B01D101232EE01B4B5B68FB61FB6944
:103F640003F480027B68DB699A4221D1FB6903F088
:103F74003F027B681B6A9A421AD1FA6947F6C073FA
:103F840013407A68526A9201934211D1FB6903F497
:103F940040327B689B6A5B08013B1B049A4207D151
:103FA400FB6903F070627B68DB6A1B069A4201D0EE
:103FB400012300E0002318462837BD4680BD00BF1A
:103FC40000700040703802400038024060004742F0
:103FD4000080BCF080B586B000AF786039607B6843
:103FE400002B01D10123D2E06B4B1B6803F00F03BC
:103FF4003A689A420CD9684B3A68D2B21A70664B46
:104004001B6803F00F033A689A4201D00123BEE013
:104014007B681B6803F00203002B20D07B681B68BD
:1040240003F00403002B05D05C4B9B685B4A43F40C
:10403400E05393607B681B6803F00803002B05D0F2
:10404400564B9B68554A43F460439360534B9B68BB
:1040540023F0F0027B689B68504913438B607B68B4
:104064001B6803F00103002B40D07B685B68012BC5
:1040740007D14A4B1B6803F40033002B15D10123ED
:1040840085E07B685B68022B07D1444B1B6803F017
:104094000073002B09D1012379E0404B1B6803F026
:1040A4000203002B01D1012371E03C4B9B6823F0F8
:1040B40003027B685B68394913438B60FCF72CFF70
:1040C40078610AE0FCF728FF02467B69D31A41F2C3
:1040D4008832934201D9032359E0304B9B6803F0A3
:1040E4000C027B685B689B009A42EBD12A4B1B68ED
:1040F40003F00F033A689A420CD2274B3A68D2B2C3
:104104001A70254B1B6803F00F033A689A4201D0DA
:1041140001233CE07B681B6803F00403002B08D0F8
:104124001E4B9B6823F4E0527B68DB681B491343F6
:104134008B607B681B6803F00803002B09D0174BC6
:104144009B6823F460427B681B69DB0013491343BB
:104154008B6000F02BF80146104B9B6803F0F003D2
:10416400F0223A613A6992FAA2F2FA60FA68B2FA73
:1041740082F2D2B2D3400A4AD35C21FA03F3094A49
:104184001360094B1B681846FCF784FE002318468D
:104194001837BD4680BD00BF003C024000380240D5
:1041A400DC46010800000020040000202DE9B04F87
:1041B40094B000AF00237B640023FB6400233B64C2
:1041C4000023BB647C4B9B6803F00C03082B0DD0CD
:1041D400082B00F2E780002B02D0042B03D0E1E08F
:1041E400764BBB64E1E0764BBB64DEE0724B5B680C
:1041F40003F03F037B64704B5B6803F48003002B84
:1042040065D06D4B5B689B090022BB63FA63BB6B93
:10421400C3F308033B6300237B63D7E90C452246C1
:104224002B464FF000004FF00001590141EAD261E2
:10423400500102460B462146511A3961294663EB67
:1042440001037B614FF000024FF00003D7E904AB98
:1042540059468B01514643EA916351468A01D4463B
:10426400B2EB0C08594663EB01094FF000024FF022
:1042740000034FEAC90343EA58734FEAC802904661
:104284009946234618EB0303BB602B4649EB030313
:10429400FB604FF000024FF00003D7E902452946C6
:1042A4004B0220462946044643EAD45301464A02B7
:1042B400104619467B6C0022BB62FA62D7E90A23D6
:1042C400FBF786FF02460B461346FB645CE03A4B61
:1042D4005B689B09002218461146C0F308033B6241
:1042E40000237B62D7E9088942464B464FF0000021
:1042F4004FF00001590141EAD261500102460B46D8
:10430400C446B2EB0C0A404649468C4663EB0C0BA0
:104314004FF000024FF000034FEA8B1343EA9A6315
:104324004FEA8A12B2EB0A0463EB0B054FF000026A
:104334004FF00003EB0043EA5473E20014461D46B9
:104344000346E3183B600B4645EB03037B604FF0E9
:1043540000024FF00003D7E9004529468B022046AE
:104364002946044643EA945301468A0210461946F4
:104374007B6C0022BB61FA61D7E90623FBF728FFB7
:1043840002460B461346FB640B4B5B681B0C03F0A5
:10439400030301335B003B64FA6C3B6CB2FBF3F345
:1043A400BB6402E0054BBB6400BFBB6C18465037CE
:1043B400BD46BDE8B08F00BF003802400024F400C1
:1043C40000127A0080B400AF024B1B681846BD4649
:1043D40080BC70470000002084B080B584B000AF7A
:1043E400786007F11C0080E80E0097F82130012B5B
:1043F40023D17B689B6B23F480327B689A637B6850
:10440400DB6823F4840323F040037A68D3607B6879
:10441400DB6823F440127B68DA6097F82830012BBC
:1044240005D17B68DB6843F480127B68DA607868C6
:1044340001F0C0FA0346FB7310E07B68DB6843F0CD
:1044440040027B68DA60786801F0B4FA0346FB73D3
:104454007B689B6B43F480327B689A63BB7F012B40
:104464000BD17B689B6843F006027B689A607B688B
:104474009B6843F020027B689A60FB7B18461037E8
:10448400BD46BDE8804004B07047000080B487B0EA
:1044940000AFF860B9601346FB71FB79022B65D15C
:1044A400BB68414A934206D9BB68404A934202D250
:1044B4000F237B6162E0BB683C4A934206D3BB682E
:1044C4003B4A934202D20E237B6157E0BB68384AD1
:1044D400934206D3BB68374A934202D20D237B61D1
:1044E4004CE0BB68334A934206D3BB68324A9342DA
:1044F40002D80C237B6141E0BB682F4A934206D962
:10450400BB682E4A934202D80B237B6136E0BB681A
:104514002A4A934206D9BB68294A934202D80A23FD
:104524007B612BE0BB68264A934206D9BB68254AC7
:10453400934202D209237B6120E0BB68214A934263
:1045440006D3BB68204A934202D808237B6115E056
:10455400BB681D4A934206D9BB681C4A934202D2E7
:1045640007237B610AE006237B6107E0FB79002BCC
:1045740002D109237B6101E009237B61FB68DB68CD
:1045840023F47052FB68DA60FB68DA687B699B028B
:1045940003F470531A43FB68DA60002318461C378F
:1045A400BD4680BC704700BFBFACD800C0E1E4008A
:1045B4000024F400807306019F491A01FF2C310185
:1045C4003FA44C0100366E011FABA6010048E80170
:1045D40080B483B000AF78607B689B6843F00102CD
:1045E4007B689A60002318460C37BD4680BC704730
:1045F40080B483B000AF78607B689B6823F00102CD
:104604007B689A60002318460C37BD4680BC70470F
:1046140080B584B000AF78600B46FB700023FB606C
:104624007B68DB6823F0C0427B68DA60FB78012B8F
:1046340015D17B68DB6843F000527B68DA600A209E
:10464400FCF774FCFB680A33FB60786801F026F918
:104654000346012B1ED0FB68C72BF0D91AE0FB7868
:10466400002B15D17B68DB6843F080427B68DA60FD
:104674000A20FCF75BFCFB680A33FB60786801F0F6
:104684000DF90346002B05D0FB68C72BF0D901E0D8
:10469400012305E0FB68C82B01D1012300E00023BE
:1046A40018461037BD4680BD84B080B586B000AFD3
:1046B400786007F1240080E80E000023FB757B6816
:1046C400FB6000233B6109E07A683B6940339B004F
:1046D400134400225A603B6901333B613B690E2B52
:1046E400F2D997F82E30002B1CD1FB6803F5006338
:1046F4005B68FA6802F5006243F0020353607B686A
:104704009B6B43F400127B689A637B689B6B23F476
:1047140000227B689A637B689B6B23F480227B680E
:104724009A630BE07B689B6B23F400127B689A63AB
:104734007B689B6B43F400227B689A63FB6803F5F8
:1047440060631A460023136097F82930012B0DD1BA
:1047540097F82730002B04D10021786800F066F91F
:1047640008E00121786800F061F903E0032178682A
:1047740000F05CF91021786800F0FAF80346002B89
:1047840001D00123FB75786800F023F90346002B60
:1047940001D00123FB75FB6803F500631A4600236F
:1047A4001361FB6803F500631A4600235361FB6839
:1047B40003F500631A460023D36100233B6143E001
:1047C4003B695A01FB68134403F510631B6803F04B
:1047D4000043B3F1004F18D13B69002B0AD13B6968
:1047E4005A01FB68134403F510631A464FF0006343
:1047F400136013E03B695A01FB68134403F510632B
:104804001A464FF09043136008E03B695A01FB6875
:10481400134403F510631A46002313603B695A01DD
:10482400FB68134403F510631A46002313613B69C4
:104834005A01FB68134403F510631A464FF67F339D
:1048440093603B6901333B6197F824301A463B6916
:104854009342B5D300233B6143E03B695A01FB68B3
:10486400134403F530631B6803F00043B3F1004FB6
:1048740018D13B69002B0AD13B695A01FB681344E8
:1048840003F530631A464FF00063136013E03B698D
:104894005A01FB68134403F530631A464FF0904302
:1048A400136008E03B695A01FB68134403F5306365
:1048B4001A46002313603B695A01FB68134403F54D
:1048C40030631A46002313613B695A01FB681344A1
:1048D40003F530631A464FF67F3393603B69013327
:1048E4003B6197F824301A463B699342B5D3FB6881
:1048F40003F500631B69FA6802F5006223F4807310
:1049040013617B6800229A617B686FF080425A6170
:1049140097F82630002B05D17B689B6943F0100281
:104924007B689A617B689A69104B13437A68936138
:1049340097F82A30002B05D07B689B6943F0080266
:104944007B689A6197F82E30012B07D17B689B69AD
:1049540043F0804343F004037A689361FB7D184677
:104964001837BD46BDE8804004B0704700383C802D
:1049740080B485B000AF786039600023FB60FB68C9
:104984000133FB60FB68B3F1706F01D903231BE0B3
:104994007B681B69002BF2DA0023FB603B689B01F8
:1049A40043F020027B681A61FB680133FB60FB68FB
:1049B400B3F1706F01D9032306E07B681B6903F030
:1049C4002003202BF0D0002318461437BD4680BCAA
:1049D400704780B485B000AF78600023FB60FB684B
:1049E4000133FB60FB68B3F1706F01D9032318E056
:1049F4007B681B69002BF2DA0023FB607B681022C2
:104A04001A61FB680133FB60FB68B3F1706F01D975
:104A1400032306E07B681B6903F01003102BF0D01E
:104A2400002318461437BD4680BC704780B485B057
:104A340000AF78600B46FB707B68FB60FB6803F596
:104A440000631A68FB78F96801F5006113430B6091
:104A5400002318461437BD4680BC704780B487B025
:104A640000AF78607B683B613B6903F500639B683A
:104A740003F00603FB60FB68002B02D10023FB75E7
:104A84000AE0FB68022B02D0FB68062B02D102234A
:104A9400FB7501E00F23FB75FB7D18461C37BD46F3
:104AA40080BC704780B485B000AF786039607B68A3
:104AB400FB603B681B78BB603B685B78012B3AD199
:104AC400FB6803F50063DA693B681B7803F00F03A6
:104AD400012101FA03F39BB2F96801F50061134364
:104AE400CB61BB685A01FB68134403F510631B6870
:104AF40003F40043002B55D1BB685A01FB681344EF
:104B040003F510631A683B689B68C3F30A013B68AA
:104B14001B799B041943BB689B050B431343BA6879
:104B24005101FA680A4402F5106243F0805343F4D9
:104B34000043136036E0FB6803F50063DA693B6801
:104B44001B7803F00F03012101FA03F31B04F96836
:104B540001F500611343CB61BB685A01FB68134440
:104B640003F530631B6803F40043002B1AD1BB68C0
:104B74005A01FB68134403F530631A683B689B6869
:104B8400C3F30A013B681B799B040B431343BA68C4
:104B94005101FA680A4402F5306243F0805343F449
:104BA40000431360002318461437BD4680BC704789
:104BB40080B485B000AF786039607B68FB603B6887
:104BC4001B78BB603B685B78012B61D1BB685A01E1
:104BD400FB68134403F510631B6803F00043B3F14F
:104BE400004F1FD1BB685A01FB68134403F51063DF
:104BF4001B68BA685101FA680A4402F5106243F06E
:104C040000631360BB685A01FB68134403F5106327
:104C14001B68BA685101FA680A4402F5106243F04D
:104C240080431360FB6803F50063DA6B3B681B7811
:104C340003F00F03012101FA03F39BB2DB43F9688C
:104C440001F500611340CB63FB6803F50063DA6987
:104C54003B681B7803F00F03012101FA03F39BB2B5
:104C6400DB43F96801F500611340CB61BB685A016D
:104C7400FB68134403F510631A68BB685901FB68A9
:104C84000B4403F510631946354B13400B6060E089
:104C9400BB685A01FB68134403F530631B6803F0D7
:104CA4000043B3F1004F1FD1BB685A01FB681344A2
:104CB40003F530631B68BA685101FA680A4402F5C7
:104CC400306243F000631360BB685A01FB6813440D
:104CD40003F530631B68BA685101FA680A4402F5A7
:104CE400306243F080431360FB6803F50063DA6BC2
:104CF4003B681B7803F00F03012101FA03F31B0443
:104D0400DB43F96801F500611340CB63FB6803F5ED
:104D14000063DA693B681B7803F00F03012101FA91
:104D240003F31B04DB43F96801F500611340CB6115
:104D3400BB685A01FB68134403F530631A68BB6807
:104D44005901FB680B4403F530631946054B1340C6
:104D54000B60002318461437BD4680BC704700BF63
:104D6400007833EC0078F3EF80B58AB002AFF860D6
:104D7400B9601346FB71FB68FB61BB681B78BB61C0
:104D8400BB685B78012B40F07A81BB681B69002B00
:104D940032D1BB695A01FB69134403F510631B69E3
:104DA400BA695101FA690A4402F5106223F0FF530B
:104DB40023F4C0131361BB695A01FB69134403F55F
:104DC40010631B69BA695101FA690A4402F5106259
:104DD40043F400231361BB695A01FB69134403F5CF
:104DE40010631B69BA695101FA690A4402F5106239
:104DF400DB0CDB04136192E0BB695A01FB691344C9
:104E040003F510631B69BA695101FA690A4402F592
:104E14001062DB0CDB041361BB695A01FB691344A8
:104E240003F510631B69BA695101FA690A4402F572
:104E3400106223F0FF5323F4C0131361BB69002BEA
:104E44001AD1BB681A69BB689B689A4203D9BB68CC
:104E54009A68BB681A61BB695A01FB69134403F57C
:104E640010631B69BA695101FA690A4402F51062B8
:104E740043F4002313611BE0BB695A01FB6913442B
:104E840003F510631A69BB681969BB689B680B4416
:104E9400591EBB689B68B1FBF3F3D904A24B0B40CA
:104EA400B9694801F969014401F5106113430B61C3
:104EB400BB695A01FB69134403F510631A69BB68A3
:104EC4001B69C3F31203B9694801F969014401F587
:104ED400106113430B61BB681B79012B1FD1BB69A4
:104EE4005A01FB69134403F510631B69BA69510144
:104EF400FA690A4402F5106223F0C0431361BB69E6
:104F04005A01FB69134403F510631B69BA69510123
:104F1400FA690A4402F5106243F000531361FB7905
:104F2400012B4BD1BB68DB69002B09D0BB695A014B
:104F3400FB69134403F510631A46BB68DB695361CC
:104F4400BB681B79012B28D1FB6903F500639B68BF
:104F540003F48073002B10D1BB695A01FB6913441D
:104F640003F510631B68BA695101FA690A4402F532
:104F7400106243F0005313600FE0BB695A01FB69F0
:104F8400134403F510631B68BA695101FA690A44B2
:104F940002F5106243F080531360BB695A01FB6948
:104FA400134403F510631B68BA695101FA690A4492
:104FB40002F5106243F00443136065E1BB695A01D2
:104FC400FB69134403F510631B68BA695101FA695C
:104FD4000A4402F5106243F004431360BB681B7972
:104FE400012B15D0BB681B69002B00F04D81FB69B8
:104FF40003F500635A6BBB681B7803F00F030121B0
:1050040001FA03F3F96901F5006113434B633BE1D2
:10501400FB6903F500639B6803F48073002B10D1D4
:10502400BB695A01FB69134403F510631B68BA6931
:105034005101FA690A4402F5106243F00053136007
:105044000FE0BB695A01FB69134403F510631B6845
:10505400BA695101FA690A4402F5106243F08053B7
:105064001360BB68D968BB681A78BB681B6998B2BF
:10507400FB7900930346F86800F0B7F904E1BB69D3
:105084005A01FB69134403F530631B69BA69510182
:10509400FA690A4402F53062DB0CDB041361BB6974
:1050A4005A01FB69134403F530631B69BA69510162
:1050B400FA690A4402F5306223F0FF5323F4C01363
:1050C4001361BB69002B31D1BB681B69002B03D072
:1050D400BB689A68BB681A61BB689A68BB681A6245
:1050E400BB695A01FB69134403F530631A69BB6851
:1050F4001B6AC3F31203B9694801F969014401F554
:10510400306113430B61BB695A01FB69134403F516
:1051140030631B69BA695101FA690A4402F53062C5
:1051240043F40023136161E00000F81FBB681B69AE
:10513400002B23D1BB695A01FB69134403F5306387
:105144001A69BB689B68C3F31203B9694801F9691A
:10515400014401F5306113430B61BB695A01FB69DA
:10516400134403F530631B69BA695101FA690A44AF
:1051740002F5306243F40023136137E0BB681A6917
:10518400BB689B6813445A1EBB689B68B2FBF3F36D
:10519400FB82BB689B68FA8A03FB02F2BB681A6253
:1051A400BB695A01FB69134403F530631A69FB8A2E
:1051B400D904384B0B40B9694801F969014401F538
:1051C400306113430B61BB695A01FB69134403F556
:1051D40030631A69BB681B6AC3F31203B9694801D7
:1051E400F969014401F5306113430B61FB79012B2B
:1051F4000DD1BB68DB68002B09D0BB68D968BB69DB
:105204005A01FB69134403F530630A465A61BB68CB
:105214001B79012B28D1FB6903F500639B6803F418
:105224008073002B10D1BB695A01FB69134403F549
:1052340030631B68BA695101FA690A4402F53062A5
:1052440043F0005313600FE0BB695A01FB69134438
:1052540003F530631B68BA695101FA690A4402F51F
:10526400306243F080531360BB695A01FB691344F5
:1052740003F530631B68BA695101FA690A4402F5FF
:10528400306243F004431360002318462037BD46C0
:1052940080BD00BF0000F81F80B487B000AF786005
:1052A40039600023FB600023FB757B683B613B682E
:1052B4005B78012B4AD13B681B785A013B69134444
:1052C40003F510631B6803F00043B3F1004F40F093
:1052D40086803B681B785A013B69134403F51063CD
:1052E4001B683A68127851013A690A4402F510625F
:1052F40043F0006313603B681B785A013B69134415
:1053040003F510631B683A68127851013A690A443C
:1053140002F5106243F080431360FB680133FB60C5
:10532400FB6842F21072934202D90123FB7556E0E6
:105334003B681B785A013B69134403F510631B68EF
:1053440003F00043B3F1004FE7D048E03B681B781B
:105354005A013B69134403F530631B6803F00043AF
:10536400B3F1004F3BD13B681B785A013B691344AE
:1053740003F530631B683A68127851013A690A44AC
:1053840002F5306243F0006313603B681B785A01F6
:105394003B69134403F530631B683A681278510182
:1053A4003A690A4402F5306243F080431360FB68B3
:1053B4000133FB60FB6842F21072934202D901236D
:1053C400FB750CE03B681B785A013B69134403F5F9
:1053D40030631B6803F00043B3F1004FE7D0FB7D5B
:1053E40018461C37BD4680BC704780B489B000AFF6
:1053F400F860B96011461A460B46FB711346BB8030
:10540400FB687B61BB68FB6197F82830002B23D1D4
:10541400BB8803339B083B610023BB6118E0FB7925
:105424001A037B69134403F580531A46FB691B680E
:105434001360FB690133FB61FB690133FB61FB69A9
:105444000133FB61FB690133FB61BB690133BB6160
:10545400BA693B699A42E2D3002318462437BD4611
:1054640080BC704780B48BB000AFF860B96013465D
:10547400FB80FB68BB61BB687B62FB889B089BB2BB
:105484007B61FB8803F00303FB8300233B6214E08E
:10549400BB6903F580531A687B6A1A607B6A01331F
:1054A4007B627B6A01337B627B6A01337B627B6A4A
:1054B40001337B623B6A01333B623A6A7B699A42FD
:1054C400E6D3FB8B002B1ED000233B62BB6903F5A4
:1054D40080531A4607F1100312681A603A693B6A4E
:1054E400DBB2DB0022FA03F3DAB27B6A1A703B6A9E
:1054F40001333B627B6A01337B62FB8B013BFB83A1
:10550400FB8B002BEAD17B6A18462C37BD4680BC46
:10551400704780B485B000AF786039607B68FB6009
:105524003B681B78BB603B685B78012B2CD1BB6864
:105534005A01FB68134403F510631B68002B12DB4C
:10554400BB68002B0FD0BB685A01FB68134403F5FA
:1055540010631B68BA685101FA680A4402F51062C4
:1055640023F080431360BB685A01FB68134403F5BE
:1055740010631B68BA685101FA680A4402F51062A4
:1055840043F4001313602BE0BB685A01FB68134417
:1055940003F530631B68002B12DBBB68002B0FD0B4
:1055A400BB685A01FB68134403F530631B68BA688F
:1055B4005101FA680A4402F5306223F08043136013
:1055C400BB685A01FB68134403F530631B68BA686F
:1055D4005101FA680A4402F5306243F4001313607F
:1055E400002318461437BD4680BC704780B485B08C
:1055F40000AF786039607B68FB603B681B78BB60F8
:105604003B685B78012B28D1BB685A01FB681344C3
:1056140003F510631B68BA685101FA680A4402F57D
:10562400106223F4001313603B681B79032B03D02F
:105634003B681B79022B38D1BB685A01FB681344C1
:1056440003F510631B68BA685101FA680A4402F54D
:10565400106243F08053136027E0BB685A01FB6873
:10566400134403F530631B68BA685101FA680A44AD
:1056740002F5306223F4001313603B681B79032B9B
:1056840003D03B681B79022B0FD1BB685A01FB681E
:10569400134403F530631B68BA685101FA680A447D
:1056A40002F5306243F08053136000231846143728
:1056B400BD4680BC704780B485B000AF78600B46AF
:1056C400FB707B68FB60FB6803F500631B68FA688A
:1056D40002F5006223F4FE631360FB6803F50063C4
:1056E4001A68FB781B0103F4FE63F96801F5006195
:1056F40013430B60002318461437BD4680BC704723
:1057040080B485B000AF78607B68FB60FB6803F50C
:1057140060631B68FA6802F5606223F00303136098
:10572400FB6803F500635B68FA6802F5006223F026
:1057340002035360002318461437BD4680BC7047EB
:1057440080B485B000AF78607B68FB60FB6803F5CC
:1057540060631B68FA6802F5606223F00303136058
:10576400FB6803F500635B68FA6802F5006243F0C6
:1057740002035360002318461437BD4680BC7047AB
:1057840080B485B000AF78607B685B69FB607B6840
:105794009B69FA681340FB60FB6818461437BD46E2
:1057A40080BC704780B485B000AF78607B68FB60D4
:1057B400FB6803F500639B69BB60FB6803F500634A
:1057C400DB69BA681340BB60BB681B0C184614370E
:1057D400BD4680BC704780B485B000AF78607B68FC
:1057E400FB60FB6803F500639B69BB60FB6803F522
:1057F4000063DB69BA681340BB60BB689BB21846A0
:105804001437BD4680BC704780B485B000AF786063
:105814000B46FB707B68FB60FB785A01FB68134402
:1058240003F530639B68BB60FB6803F500635B6949
:10583400BA681340BB60BB6818461437BD4680BCC9
:10584400704780B487B000AF78600B46FB707B680C
:105854007B617B6903F500631B693B617B6903F52D
:1058640000635B6BFB60FB7803F00F03FA6822FABA
:1058740003F3DB01DBB23A6913433B61FB785A0162
:105884007B69134403F510639B683A691340BB605A
:10589400BB6818461C37BD4680BC704780B483B0D3
:1058A40000AF78607B685B6903F0010318460C372E
:1058B400BD4680BC704780B485B000AF78607B681B
:1058C400FB60FB6803F510631B68FA6802F510625D
:1058D40023F4FF6323F007031360FB6803F50063FD
:1058E4005B68FA6802F5006243F480735360002336
:1058F40018461437BD4680BC7047000080B487B09A
:1059040000AFF8600B467A60FB72FB687B61FB6852
:105914003C3304331B683B613B69254A93420AD9F3
:105924007B6903F530631B6803F00043B3F1004F58
:1059340001D1002337E07B6903F530631A46002365
:1059440013617B6903F530631B697A6902F5306280
:1059540043F4002313617B6903F530631B697A699F
:1059640002F5306243F0180313617B6903F5306379
:105974001B697A6902F5306243F0C0431361FB7A14
:10598400012B0FD17B6903F530631A467B685361A1
:105994007B6903F530631B687A6902F5306243F072
:1059A40080231360002318461C37BD4680BC704713
:1059B4000A30544F80B485B000AF78600023FB6098
:1059C400FB680133FB60FB68B3F1706F01D90323FB
:1059D4001BE07B681B69002BF2DA0023FB607B6809
:1059E4001B6943F001027B681A61FB680133FB60A9
:1059F400FB68B3F1706F01D9032306E07B681B6970
:105A040003F00103012BF0D0002318461437BD46E0
:105A140080BC704780B584B004AF8D4BC0221A702F
:105A24008B4BA8225A708A4B01229A70884B02220F
:105A3400DA70884BFF221A70864BFF225A70854B0E
:105A4400FF229A70834B0022DA70834BC0221A70B3
:105A5400814BA8225A70804B00229A707E4B0122FF
:105A6400DA7002F075F87A4B1B781A06784B5B787B
:105A74001B041A43764B9B781B021343744AD27857
:105A840013431A06724B1B781906714B5B781B047F
:105A940019436F4B9B781B020B436D49C9780B4329
:105AA4001B0203F47F031A43694B1B781906684BE6
:105AB4005B781B041943664B9B781B020B436449B8
:105AC400C9780B431B0A03F47F431A43604B1B78CA
